{
  "_format": "hh-sol-artifact-1",
  "contractName": "NFTMarketplace",
  "sourceName": "contracts/NFTMarketplace.sol",
  "abi": [
    {
      "inputs": [],
      "name": "ReentrancyGuardReentrantCall",
      "type": "error"
    },
    {
      "anonymous": false,
      "inputs": [
        {
          "indexed": true,
          "internalType": "address",
          "name": "seller",
          "type": "address"
        },
        {
          "indexed": true,
          "internalType": "address",
          "name": "nftAddress",
          "type": "address"
        },
        {
          "indexed": true,
          "internalType": "uint256",
          "name": "tokenId",
          "type": "uint256"
        }
      ],
      "name": "ItemCanceled",
      "type": "event"
    },
    {
      "anonymous": false,
      "inputs": [
        {
          "indexed": true,
          "internalType": "address",
          "name": "seller",
          "type": "address"
        },
        {
          "indexed": true,
          "internalType": "address",
          "name": "nftAddress",
          "type": "address"
        },
        {
          "indexed": true,
          "internalType": "uint256",
          "name": "tokenId",
          "type": "uint256"
        },
        {
          "indexed": false,
          "internalType": "uint256",
          "name": "price",
          "type": "uint256"
        }
      ],
      "name": "ItemListed",
      "type": "event"
    },
    {
      "anonymous": false,
      "inputs": [
        {
          "indexed": true,
          "internalType": "address",
          "name": "buyer",
          "type": "address"
        },
        {
          "indexed": true,
          "internalType": "address",
          "name": "nftAddress",
          "type": "address"
        },
        {
          "indexed": true,
          "internalType": "uint256",
          "name": "tokenId",
          "type": "uint256"
        },
        {
          "indexed": false,
          "internalType": "uint256",
          "name": "price",
          "type": "uint256"
        }
      ],
      "name": "ItemSold",
      "type": "event"
    },
    {
      "inputs": [
        {
          "internalType": "address",
          "name": "nftAddress",
          "type": "address"
        },
        {
          "internalType": "uint256",
          "name": "tokenId",
          "type": "uint256"
        }
      ],
      "name": "buyItem",
      "outputs": [],
      "stateMutability": "payable",
      "type": "function"
    },
    {
      "inputs": [
        {
          "internalType": "address",
          "name": "nftAddress",
          "type": "address"
        },
        {
          "internalType": "uint256",
          "name": "tokenId",
          "type": "uint256"
        }
      ],
      "name": "cancelListing",
      "outputs": [],
      "stateMutability": "nonpayable",
      "type": "function"
    },
    {
      "inputs": [
        {
          "internalType": "address",
          "name": "nftAddress",
          "type": "address"
        },
        {
          "internalType": "uint256",
          "name": "tokenId",
          "type": "uint256"
        }
      ],
      "name": "getListing",
      "outputs": [
        {
          "components": [
            {
              "internalType": "address",
              "name": "seller",
              "type": "address"
            },
            {
              "internalType": "uint256",
              "name": "price",
              "type": "uint256"
            },
            {
              "internalType": "bool",
              "name": "active",
              "type": "bool"
            }
          ],
          "internalType": "struct NFTMarketplace.Listing",
          "name": "",
          "type": "tuple"
        }
      ],
      "stateMutability": "view",
      "type": "function"
    },
    {
      "inputs": [
        {
          "internalType": "address",
          "name": "nftAddress",
          "type": "address"
        },
        {
          "internalType": "uint256",
          "name": "tokenId",
          "type": "uint256"
        },
        {
          "internalType": "uint256",
          "name": "price",
          "type": "uint256"
        }
      ],
      "name": "listItem",
      "outputs": [],
      "stateMutability": "nonpayable",
      "type": "function"
    }
  ],
  "bytecode": "0x608060405234801561001057600080fd5b506001600055610909806100256000396000f3fe60806040526004361061003f5760003560e01c806388700d1c1461004457806389bfd38f146100f75780639f37092a14610119578063b2ddee061461012c575b600080fd5b34801561005057600080fd5b506100c661005f36600461082c565b6040805160608082018352600080835260208084018290529284018190526001600160a01b03958616815260018084528482209582529483528390208351918201845280549095168152928401549083015260029092015460ff1615159181019190915290565b6040805182516001600160a01b03168152602080840151908201529181015115159082015260600160405180910390f35b34801561010357600080fd5b50610117610112366004610858565b61014c565b005b61011761012736600461082c565b61042d565b34801561013857600080fd5b5061011761014736600461082c565b610654565b6040516331a9108f60e11b81526004810183905283908390339081906001600160a01b03851690636352211e90602401602060405180830381865afa158015610199573d6000803e3d6000fd5b505050506040513d601f19601f820116820180604052508101906101bd919061088d565b6001600160a01b0316146102085760405162461bcd60e51b815260206004820152600d60248201526c2737ba103a34329037bbb732b960991b60448201526064015b60405180910390fd5b6000841161024c5760405162461bcd60e51b815260206004820152601160248201527005072696365206d757374206265203e203607c1b60448201526064016101ff565b60405163e985e9c560e01b81523360048201523060248201526001600160a01b0387169063e985e9c590604401602060405180830381865afa158015610296573d6000803e3d6000fd5b505050506040513d601f19601f820116820180604052508101906102ba91906108b1565b80610336575060405163020604bf60e21b81526004810186905230906001600160a01b0388169063081812fc90602401602060405180830381865afa158015610307573d6000803e3d6000fd5b505050506040513d601f19601f8201168201806040525081019061032b919061088d565b6001600160a01b0316145b6103825760405162461bcd60e51b815260206004820152601860248201527f4d61726b6574706c616365206e6f7420617070726f766564000000000000000060448201526064016101ff565b6040805160608101825233808252602080830188815260018486018181526001600160a01b038d811660008181528487528981208f82528752899020975188546001600160a01b0319169216919091178755925191860191909155516002909401805460ff191694151594909417909355925187815288937fd547e933094f12a9159076970143ebe73234e64480317844b0dcb36117116de4910160405180910390a4505050505050565b6104356107ea565b6001600160a01b03821660009081526001602090815260408083208484529091529020600201548290829060ff1661049c5760405162461bcd60e51b815260206004820152600a602482015269139bdd081b1a5cdd195960b21b60448201526064016101ff565b6001600160a01b0380851660009081526001602081815260408084208885528252928390208351606081018552815490951685529182015490840181905260029091015460ff1615159183019190915234146105285760405162461bcd60e51b815260206004820152600b60248201526a57726f6e6720707269636560a81b60448201526064016101ff565b6001600160a01b03858116600081815260016020908152604080832089845290915290819020600201805460ff1916905583519051632142170760e11b81529216600483015233602483015260448201869052906342842e0e90606401600060405180830381600087803b15801561059f57600080fd5b505af11580156105b3573d6000803e3d6000fd5b505082516040516001600160a01b0390911692503480156108fc029250906000818181858888f193505050501580156105f0573d6000803e3d6000fd5b5083856001600160a01b0316336001600160a01b03167fc36542c7a190a4c20a7f15a0ddc46871de452f269f15b0e621f11b48463b299f846020015160405161063b91815260200190565b60405180910390a45050506106506001600055565b5050565b6040516331a9108f60e11b81526004810182905282908290339081906001600160a01b03851690636352211e90602401602060405180830381865afa1580156106a1573d6000803e3d6000fd5b505050506040513d601f19601f820116820180604052508101906106c5919061088d565b6001600160a01b03161461070b5760405162461bcd60e51b815260206004820152600d60248201526c2737ba103a34329037bbb732b960991b60448201526064016101ff565b6001600160a01b03851660009081526001602090815260408083208784529091529020600201548590859060ff166107725760405162461bcd60e51b815260206004820152600a602482015269139bdd081b1a5cdd195960b21b60448201526064016101ff565b6001600160a01b03871660008181526001602081815260408084208b855290915280832080546001600160a01b03191681559182018390556002909101805460ff191690555188929133917f9ba1a3cb55ce8d63d072a886f94d2a744f50cddf82128e897d0661f5ec6231589190a450505050505050565b60026000540361080d57604051633ee5aeb560e01b815260040160405180910390fd5b6002600055565b6001600160a01b038116811461082957600080fd5b50565b6000806040838503121561083f57600080fd5b823561084a81610814565b946020939093013593505050565b60008060006060848603121561086d57600080fd5b833561087881610814565b95602085013595506040909401359392505050565b60006020828403121561089f57600080fd5b81516108aa81610814565b9392505050565b6000602082840312156108c357600080fd5b815180151581146108aa57600080fdfea264697066735822122023925ad4bdf48716f73d929be40db207d44240e90dfb6cc01ba02bd9a08a7d1864736f6c63430008140033",
  "linkReferences": {},
  "deployedLinkReferences": {}
}